{
  "abi": [
    {
      "inputs": [
        {
          "internalType": "contract CTokenInterface",
          "name": "cToken",
          "type": "address"
        }
      ],
      "name": "buildCTokenAllData",
      "outputs": [
        {
          "components": [
            {
              "internalType": "address",
              "name": "cToken",
              "type": "address"
            },
            {
              "internalType": "uint256",
              "name": "exchangeRateCurrent",
              "type": "uint256"
            },
            {
              "internalType": "uint256",
              "name": "supplyRatePerBlock",
              "type": "uint256"
            },
            {
              "internalType": "uint256",
              "name": "borrowRatePerBlock",
              "type": "uint256"
            },
            {
              "internalType": "uint256",
              "name": "reserveFactorMantissa",
              "type": "uint256"
            },
            {
              "internalType": "uint256",
              "name": "totalBorrows",
              "type": "uint256"
            },
            {
              "internalType": "uint256",
              "name": "totalReserves",
              "type": "uint256"
            },
            {
              "internalType": "uint256",
              "name": "totalSupply",
              "type": "uint256"
            },
            {
              "internalType": "uint256",
              "name": "totalCash",
              "type": "uint256"
            },
            {
              "internalType": "bool",
              "name": "isListed",
              "type": "bool"
            },
            {
              "internalType": "uint256",
              "name": "collateralFactorMantissa",
              "type": "uint256"
            },
            {
              "internalType": "address",
              "name": "underlyingAssetAddress",
              "type": "address"
            },
            {
              "internalType": "uint256",
              "name": "cTokenDecimals",
              "type": "uint256"
            },
            {
              "internalType": "uint256",
              "name": "underlyingDecimals",
              "type": "uint256"
            },
            {
              "internalType": "uint256",
              "name": "compSupplySpeed",
              "type": "uint256"
            },
            {
              "internalType": "uint256",
              "name": "compBorrowSpeed",
              "type": "uint256"
            },
            {
              "internalType": "uint256",
              "name": "borrowCap",
              "type": "uint256"
            },
            {
              "internalType": "bool",
              "name": "mintGuardianPaused",
              "type": "bool"
            },
            {
              "internalType": "uint256",
              "name": "underlyingPrice",
              "type": "uint256"
            }
          ],
          "internalType": "struct SleuthLensHarmony.CTokenAllData",
          "name": "",
          "type": "tuple"
        }
      ],
      "stateMutability": "nonpayable",
      "type": "function"
    },
    {
      "inputs": [
        {
          "internalType": "contract CTokenInterface",
          "name": "cToken",
          "type": "address"
        },
        {
          "internalType": "address payable",
          "name": "account",
          "type": "address"
        }
      ],
      "name": "cTokenBalances",
      "outputs": [
        {
          "components": [
            {
              "internalType": "address",
              "name": "cToken",
              "type": "address"
            },
            {
              "internalType": "uint256",
              "name": "balanceOf",
              "type": "uint256"
            },
            {
              "internalType": "uint256",
              "name": "borrowBalanceCurrent",
              "type": "uint256"
            },
            {
              "internalType": "uint256",
              "name": "balanceOfUnderlying",
              "type": "uint256"
            },
            {
              "internalType": "uint256",
              "name": "tokenBalance",
              "type": "uint256"
            },
            {
              "internalType": "uint256",
              "name": "tokenAllowance",
              "type": "uint256"
            }
          ],
          "internalType": "struct SleuthLensHarmony.CTokenBalances",
          "name": "",
          "type": "tuple"
        }
      ],
      "stateMutability": "nonpayable",
      "type": "function"
    },
    {
      "inputs": [
        {
          "internalType": "contract ComptrollerLensInterface",
          "name": "comptroller",
          "type": "address"
        },
        {
          "internalType": "address",
          "name": "account",
          "type": "address"
        }
      ],
      "name": "getAccountLimits",
      "outputs": [
        {
          "components": [
            {
              "internalType": "contract CTokenInterface[]",
              "name": "markets",
              "type": "address[]"
            },
            {
              "internalType": "uint256",
              "name": "liquidity",
              "type": "uint256"
            },
            {
              "internalType": "uint256",
              "name": "shortfall",
              "type": "uint256"
            }
          ],
          "internalType": "struct SleuthLensHarmony.AccountLimits",
          "name": "",
          "type": "tuple"
        }
      ],
      "stateMutability": "view",
      "type": "function"
    },
    {
      "inputs": [
        {
          "internalType": "contract CTokenInterface[]",
          "name": "cTokens",
          "type": "address[]"
        }
      ],
      "name": "queryAllNoAccount",
      "outputs": [
        {
          "components": [
            {
              "internalType": "uint256",
              "name": "closeFactorMantissa",
              "type": "uint256"
            },
            {
              "internalType": "uint256",
              "name": "liquidationIncentiveMantissa",
              "type": "uint256"
            },
            {
              "components": [
                {
                  "internalType": "address",
                  "name": "cToken",
                  "type": "address"
                },
                {
                  "internalType": "uint256",
                  "name": "exchangeRateCurrent",
                  "type": "uint256"
                },
                {
                  "internalType": "uint256",
                  "name": "supplyRatePerBlock",
                  "type": "uint256"
                },
                {
                  "internalType": "uint256",
                  "name": "borrowRatePerBlock",
                  "type": "uint256"
                },
                {
                  "internalType": "uint256",
                  "name": "reserveFactorMantissa",
                  "type": "uint256"
                },
                {
                  "internalType": "uint256",
                  "name": "totalBorrows",
                  "type": "uint256"
                },
                {
                  "internalType": "uint256",
                  "name": "totalReserves",
                  "type": "uint256"
                },
                {
                  "internalType": "uint256",
                  "name": "totalSupply",
                  "type": "uint256"
                },
                {
                  "internalType": "uint256",
                  "name": "totalCash",
                  "type": "uint256"
                },
                {
                  "internalType": "bool",
                  "name": "isListed",
                  "type": "bool"
                },
                {
                  "internalType": "uint256",
                  "name": "collateralFactorMantissa",
                  "type": "uint256"
                },
                {
                  "internalType": "address",
                  "name": "underlyingAssetAddress",
                  "type": "address"
                },
                {
                  "internalType": "uint256",
                  "name": "cTokenDecimals",
                  "type": "uint256"
                },
                {
                  "internalType": "uint256",
                  "name": "underlyingDecimals",
                  "type": "uint256"
                },
                {
                  "internalType": "uint256",
                  "name": "compSupplySpeed",
                  "type": "uint256"
                },
                {
                  "internalType": "uint256",
                  "name": "compBorrowSpeed",
                  "type": "uint256"
                },
                {
                  "internalType": "uint256",
                  "name": "borrowCap",
                  "type": "uint256"
                },
                {
                  "internalType": "bool",
                  "name": "mintGuardianPaused",
                  "type": "bool"
                },
                {
                  "internalType": "uint256",
                  "name": "underlyingPrice",
                  "type": "uint256"
                }
              ],
              "internalType": "struct SleuthLensHarmony.CTokenAllData[]",
              "name": "cTokens",
              "type": "tuple[]"
            }
          ],
          "internalType": "struct SleuthLensHarmony.NoAccountAllData",
          "name": "",
          "type": "tuple"
        }
      ],
      "stateMutability": "nonpayable",
      "type": "function"
    },
    {
      "inputs": [
        {
          "internalType": "contract CTokenInterface[]",
          "name": "cTokens",
          "type": "address[]"
        },
        {
          "internalType": "address payable",
          "name": "account",
          "type": "address"
        }
      ],
      "name": "queryAllWithAccount",
      "outputs": [
        {
          "components": [
            {
              "internalType": "uint256",
              "name": "closeFactorMantissa",
              "type": "uint256"
            },
            {
              "internalType": "uint256",
              "name": "liquidationIncentiveMantissa",
              "type": "uint256"
            },
            {
              "internalType": "contract CTokenInterface[]",
              "name": "marketsIn",
              "type": "address[]"
            },
            {
              "internalType": "uint256",
              "name": "liquidity",
              "type": "uint256"
            },
            {
              "internalType": "uint256",
              "name": "shortfall",
              "type": "uint256"
            },
            {
              "components": [
                {
                  "internalType": "uint256",
                  "name": "balance",
                  "type": "uint256"
                },
                {
                  "internalType": "uint256",
                  "name": "votes",
                  "type": "uint256"
                },
                {
                  "internalType": "address",
                  "name": "delegate",
                  "type": "address"
                },
                {
                  "internalType": "uint256",
                  "name": "allocated",
                  "type": "uint256"
                }
              ],
              "internalType": "struct SleuthLensHarmony.CompBalanceMetadataExt",
              "name": "compMetadata",
              "type": "tuple"
            },
            {
              "internalType": "uint256",
              "name": "capFactoryAllowance",
              "type": "uint256"
            },
            {
              "components": [
                {
                  "internalType": "address",
                  "name": "cToken",
                  "type": "address"
                },
                {
                  "internalType": "uint256",
                  "name": "exchangeRateCurrent",
                  "type": "uint256"
                },
                {
                  "internalType": "uint256",
                  "name": "supplyRatePerBlock",
                  "type": "uint256"
                },
                {
                  "internalType": "uint256",
                  "name": "borrowRatePerBlock",
                  "type": "uint256"
                },
                {
                  "internalType": "uint256",
                  "name": "reserveFactorMantissa",
                  "type": "uint256"
                },
                {
                  "internalType": "uint256",
                  "name": "totalBorrows",
                  "type": "uint256"
                },
                {
                  "internalType": "uint256",
                  "name": "totalReserves",
                  "type": "uint256"
                },
                {
                  "internalType": "uint256",
                  "name": "totalSupply",
                  "type": "uint256"
                },
                {
                  "internalType": "uint256",
                  "name": "totalCash",
                  "type": "uint256"
                },
                {
                  "internalType": "bool",
                  "name": "isListed",
                  "type": "bool"
                },
                {
                  "internalType": "uint256",
                  "name": "collateralFactorMantissa",
                  "type": "uint256"
                },
                {
                  "internalType": "address",
                  "name": "underlyingAssetAddress",
                  "type": "address"
                },
                {
                  "internalType": "uint256",
                  "name": "cTokenDecimals",
                  "type": "uint256"
                },
                {
                  "internalType": "uint256",
                  "name": "underlyingDecimals",
                  "type": "uint256"
                },
                {
                  "internalType": "uint256",
                  "name": "compSupplySpeed",
                  "type": "uint256"
                },
                {
                  "internalType": "uint256",
                  "name": "compBorrowSpeed",
                  "type": "uint256"
                },
                {
                  "internalType": "uint256",
                  "name": "borrowCap",
                  "type": "uint256"
                },
                {
                  "internalType": "bool",
                  "name": "mintGuardianPaused",
                  "type": "bool"
                },
                {
                  "internalType": "uint256",
                  "name": "underlyingPrice",
                  "type": "uint256"
                },
                {
                  "internalType": "uint256",
                  "name": "balanceOf",
                  "type": "uint256"
                },
                {
                  "internalType": "uint256",
                  "name": "borrowBalanceCurrent",
                  "type": "uint256"
                },
                {
                  "internalType": "uint256",
                  "name": "balanceOfUnderlying",
                  "type": "uint256"
                },
                {
                  "internalType": "uint256",
                  "name": "tokenBalance",
                  "type": "uint256"
                },
                {
                  "internalType": "uint256",
                  "name": "tokenAllowance",
                  "type": "uint256"
                }
              ],
              "internalType": "struct SleuthLensHarmony.CTokenAllDataWithAccount[]",
              "name": "cTokens",
              "type": "tuple[]"
            }
          ],
          "internalType": "struct SleuthLensHarmony.AccountAllData",
          "name": "",
          "type": "tuple"
        }
      ],
      "stateMutability": "nonpayable",
      "type": "function"
    }
  ],
  "bytecode": {
    "object": "0x6080806040523461001657611fe7908161001c8239f35b600080fdfe61036080604052600436101561001457600080fd5b60003560e01c9081635d2bb247146108fe575080637dd8f6d91461088e5780639b56b5cc14610860578063bdf950c9146107f25763d05308d41461005757600080fd5b3461047e57604036600319011261047e576004356001600160401b03811161047e57610087903690600401610b74565b61008f610cca565b91606060e06040516100a081610d11565b6000815260006020820152826040820152600083820152600060808201526040516100ca81610d2d565b60008152600060208201526000604082015260008482015260a0820152600060c082015201526100f982610dd7565b916101076040519384610db6565b808352601f1961011682610dd7565b0160005b81811061072357505060005b81811061050e5750600091600094606090600092600094158015610384575b5050506040519361015585610d2d565b600085526000602086015260006040860152600060608601526040519661017b88610d11565b8752602087015260408601526060850152608084015260a0830152600060c083015260e0820152604051809160208252805160208301526020810151604083015260e06101d960408301516101606060860152610180850190610c77565b9160608101516080850152608081015160a0850152606060a0820151805160c0870152602081015184870152604081015160018060a01b0316610100870152015161012085015260c0810151610140850152015190601f19838203016101608401526020808351928381520192019060005b818110610259575050500390f35b9193509160206103006001928651848060a01b038151168252838101518483015260408101516040830152606081015160608301526080810151608083015260a081015160a083015260c081015160c083015260e081015160e08301526101008101516101008301526101208101511515610120830152610140810151610140830152848060a01b03610160820151166101608301526101808101516101808301526101a080820151908301526101c080820151908301526101e080820151908301526102008082015190830152610220808201511515908301526102408082015190830152610260808201519083015261028080820151908301526102a080820151908301526102c080820151908301526102e0809101519082015201940191019184939261024b565b94509450955050506104f8576000906020906001600160a01b03906103a890610e89565b16600460405180948193635fe3b56760e01b83525af190811561048b576000916104c9575b50604051634ada90af60e01b81526001600160a01b039190911690602081600481855afa90811561048b57600091610497575b5060405163743aaa2360e11b81529091602082600481845afa801561048b57600090610452575b9461043c92506001600160a01b031690610ed0565b8051906040602082015191015191388080610145565b506020823d602011610483575b8161046c60209383610db6565b8101031261047e5761043c9151610427565b600080fd5b3d915061045f565b6040513d6000823e3d90fd5b90506020813d6020116104c1575b816104b260209383610db6565b8101031261047e575138610400565b3d91506104a5565b6104eb915060203d6020116104f1575b6104e38183610db6565b810190610eb1565b386103cd565b503d6104d9565b634e487b7160e01b600052603260045260246000fd5b8061052c6105276105226001948688610e79565b610e89565b61118c565b6105438761053e61052285888a610e79565b611c2b565b6101e052808080808080808080808080808f6101e06101c06101a061018061014061012061010060e060c060a0608060608d8d6102409e851b039051169d602081015187526040810151895201519d01519d01519d01519d01519d01519d015115159d01519d6001806101609160a01b03910151169e01519e01519e01519e01519e610200810151608052610220810151151560c05201516101c05260206101e05101516101a05260406101e05101516101805260606101e05101516101605260806101e05101516101205260a06101e051015160e05260405160a05261062b60a051610d48565b60a0515261010051602060a051015261014051604060a0510152606060a0510152608060a051015260a08051015260c060a051015260e060a051015261010060a051015261012060a051015261014060a051015261016060a051015261018060a05101526101a060a05101526101c060a05101526101e060a051015260805161020060a051015260c05161022060a05101526101c05161024060a05101526101a05161026060a05101526101805161028060a0510152610160516102a060a0510152610120516102c060a051015260e0516102e060a051015260a0516107118287610e9d565b5261071c8186610e9d565b5001610126565b60209060405161073281610d48565b60008152600083820152600060408201526000606082015260006080820152600060a0820152600060c0820152600060e08201526000610100820152600061012082015260006101408201526000610160820152600061018082015260006101a082015260006101c082015260006101e08201526000610200820152600061022082015260006102408201526000610260820152600061028082015260006102a082015260006102c082015260006102e08201528282880101520161011a565b3461047e57604036600319011261047e5760c061081e610810610cb4565b610818610cca565b90611c2b565b60a060405191600180831b03815116835260208101516020840152604081015160408401526060810151606084015260808101516080840152015160a0820152f35b3461047e57602036600319011261047e5761026061087f610527610cb4565b61088c6040518092610ba4565bf35b3461047e57604036600319011261047e576004356001600160a01b03808216820361047e57602435908116810361047e576108c891610ed0565b60405180916020825260406108e98251606060208601526080850190610c77565b91602081015182850152015160608301520390f35b3461047e576020908160031936011261047e576004356001600160401b03811161047e5760606109346040923690600401610b74565b92909361094081610ce0565b60008152600086820152015261095581610dd7565b6109626040519182610db6565b818152601f1961097183610dd7565b018460005b828110610b5e5750505060005b828110610b2e5750600092600092158015610a17575b5050604051916109a883610ce0565b8252838201928352604082019081526040519284845260808401925185850152516040840152519060608084015281518091528360a0840192019360005b8281106109f35784840385f35b9091928261026082610a086001948a51610ba4565b019601910194929190946109e6565b91935091506104f8576001600160a01b039060009084908390610a3990610e89565b16600460405180948193635fe3b56760e01b83525af190811561048b57600091610b11575b501690604051634ada90af60e01b81528381600481865afa801561048b578490600090610ae3575b60049250936040519283809263743aaa2360e11b82525afa90811561048b57600091610ab6575b50908480610999565b90508381813d8311610adc575b610acd8183610db6565b8101031261047e575184610aad565b503d610ac3565b5081813d8311610b0a575b610af88183610db6565b8101031261047e578360049151610a86565b503d610aee565b610b289150843d86116104f1576104e38183610db6565b84610a5e565b80610b426105276105226001948789610e79565b610b4c8285610e9d565b52610b578184610e9d565b5001610983565b610b66610dee565b828286010152018590610976565b9181601f8401121561047e578235916001600160401b03831161047e576020808501948460051b01011161047e57565b60018060a01b038082511683526020820151602084015260408201516040840152606082015160608401526080820151608084015260a082015160a084015260c082015160c084015260e082015160e084015261010080830151908401526101208083015115159084015261014080830151908401526101609081830151169083015261018080820151908301526101a080820151908301526101c080820151908301526101e0808201519083015261020080820151908301526102208082015115159083015261024080910151910152565b90815180825260208080930193019160005b828110610c97575050505090565b83516001600160a01b031685529381019392810192600101610c89565b600435906001600160a01b038216820361047e57565b602435906001600160a01b038216820361047e57565b606081019081106001600160401b03821117610cfb57604052565b634e487b7160e01b600052604160045260246000fd5b61010081019081106001600160401b03821117610cfb57604052565b608081019081106001600160401b03821117610cfb57604052565b61030081019081106001600160401b03821117610cfb57604052565b61026081019081106001600160401b03821117610cfb57604052565b60c081019081106001600160401b03821117610cfb57604052565b604081019081106001600160401b03821117610cfb57604052565b90601f801991011681019081106001600160401b03821117610cfb57604052565b6001600160401b038111610cfb5760051b60200190565b60405190610dfb82610d64565b816102406000918281528260208201528260408201528260608201528260808201528260a08201528260c08201528260e08201528261010082015282610120820152826101408201528261016082015282610180820152826101a0820152826101c0820152826101e082015282610200820152826102208201520152565b91908110156104f85760051b0190565b356001600160a01b038116810361047e5790565b80518210156104f85760209160051b010190565b9081602091031261047e57516001600160a01b038116810361047e5790565b6040805192610ede84610ce0565b6060845260009384836020928284820152015260018060a01b038094169380845193635ec88c7960e01b85521694856004850152606084602481845afa95861561106d578788958998611028575b506110245787906024875180948193632aff3bff60e21b835260048301525afa968715611019578097610f74575b505050825194610f6986610ce0565b855284015282015290565b90919296503d8082843e610f888184610db6565b8201918781840312611015578051906001600160401b03821161101157019282601f8501121561101557835191610fbe83610dd7565b94610fcb88519687610db6565b838652898087019460051b820101948511611015578901925b848410610ff957505050505093388080610f5a565b83518381168103611011578152928901928901610fe4565b8280fd5b5080fd5b8551903d90823e3d90fd5b8780fd5b97505093506060863d606011611065575b8161104660609383610db6565b81010312611061578551838701519686015196949038610f2c565b8680fd5b3d9150611039565b85513d89823e3d90fd5b5190811515820361047e57565b6001600160401b038111610cfb57601f01601f191660200190565b60005b8381106110b25750506000910152565b81810151838201526020016110a2565b60208183031261047e578051906001600160401b03821161047e570181601f8201121561047e5780516110f481611084565b926111026040519485610db6565b8184526020828401011161047e57611120916020808501910161109f565b90565b6040519061113082610d9b565b6004825263634f4e4560e01b6020830152565b9081602091031261047e575160ff8116810361047e5790565b3d15611187573d9061116d82611084565b9161117b6040519384610db6565b82523d6000602084013e565b606090565b611194610dee565b5060405163bd6d894d60e01b815260208160048160006001600160a01b0387165af1801561048b57600061026052611bf7575b50604051635fe3b56760e01b81529060208260048160006001600160a01b0386165af191821561048b57600092611bd6575b5060408051638e8f294b60e01b81526001600160a01b038381166004830152909391908490602490829085165afa91821561048b57600093600093611b94575b506040516395d89b4160e01b81526000816004816001600160a01b0386165afa801561048b5761127a91600091611b71575b50611274611123565b90611f5c565b15611a7f5760129160005b6000946000806040516020810160018060a01b0388168152602082526112aa82610d9b565b6112e2602460405180936112d26020830196636aa875b560e01b88525180928585019061109f565b8101036004810184520182610db6565b5190826001600160a01b0388165af196876112fb61115c565b90611a64575b506000976000806040516020810160018060a01b038a1681526020825261132782610d9b565b61134f602460405180936112d260208301966303d290cf60e61b88525180928585019061109f565b5190826001600160a01b038a165af1908161136861115c565b90611a49575b5015908115611a40575b506119b0575b60006102a0526000806040516020810160018060a01b0389168152602082526113a682610d9b565b6113ce602460405180936112d2602083019663252c221960e11b88525180928585019061109f565b5190826001600160a01b0389165af16113e561115c565b90611995575b506040516307dc0d1d60e41b81526020816004816001600160a01b0389165afa801561048b57600061030052611951575b50604051630ae9d70b60e41b81526020816004816001600160a01b038a165afa801561048b5760006102005261191d575b50604051631f1f3b4560e31b8152936020856004816001600160a01b038a165afa94851561048b576000956118e9575b506040516305cee64160e21b8152946020866004816001600160a01b038b165afa95861561048b576000966118b5575b506040516308f7a6e360e31b81526020816004816001600160a01b038c165afa90811561048b57600091611883575b50604051638f840ddd60e01b8152906020826004816001600160a01b038d165afa91821561048b5760009261184f575b506040516318160ddd60e01b8152976020896004816001600160a01b038e165afa93841561048b5760009461181a575b604051631d8e90d160e11b8152995060208a6004816001600160a01b038f165afa95861561048b576000966117e5575b60049a5060208c6040519c8d809263313ce56760e01b825260018060a01b03165afa9a8b1561048b5760009b6117b3575b5060405161034081815263731f0c2b60e01b90915280516001600160a01b038e8116600490920191909152905160209290916024918391165afa61032052610320511561048b5760006102e0526103205161176f575b6040516102c05263fc57d4df60e01b6102c0515260018060a01b038b1660046102c051015260206102c05160246102c05160018060a01b0361030051165afa61028052610280511561048b5760006102405261028051611732575b60ff9a6040516102205261166461022051610d64565b60018060a01b031661022051526102605160206102205101526102005160406102205101526060610220510152608061022051015260a061022051015260c061022051015260e0610220510152610100610220510152151561012061022051015261014061022051015260018060a01b0316610160610220510152166101806102205101526101a06102205101526101c06102205101526101e06102205101526102a0516102006102205101526102e051151561022080510152610240516102406102205101526102205190565b60203d602011611768575b8061174d6020926102c051610db6565b6102c051908101031261047e576102c051516102405261164e565b503d61173d565b60203d6020116117ac575b8061178a60209261034051610db6565b61034051908101031261047e576117a361034051611077565b6102e0526115f3565b503d61177a565b6020919b506117d790823d84116117de575b6117cf8183610db6565b810190611143565b9a9061159d565b503d6117c5565b955060208a3d602011611812575b8161180060209383610db6565b8101031261047e57600499519561156c565b3d91506117f3565b93506020893d602011611847575b8161183560209383610db6565b8101031261047e57600498519361153c565b3d9150611828565b9091506020813d60201161187b575b8161186b60209383610db6565b8101031261047e5751903861150c565b3d915061185e565b90506020813d6020116118ad575b8161189e60209383610db6565b8101031261047e5751386114dc565b3d9150611891565b9095506020813d6020116118e1575b816118d160209383610db6565b8101031261047e575194386114ad565b3d91506118c4565b9094506020813d602011611915575b8161190560209383610db6565b8101031261047e5751933861147d565b3d91506118f8565b6020813d602011611949575b8161193660209383610db6565b8101031261047e5751610200523861144d565b3d9150611929565b6020813d60201161198d575b8161196a60209383610db6565b8101031261047e57516001600160a01b038116810361047e57610300523861141c565b3d915061195d565b60208180518101031261047e57602001516102a052386113eb565b6040516001600160a01b0386166020808301918252825260009182916119d582610d9b565b6119fd602460405180936112d26020830196631d7b33d760e01b88525180928585019061109f565b5190826001600160a01b0389165af1611a1461115c565b90611a20575b5061137e565b80809399506020929850518101031261047e576020015195869538611a1a565b90501538611378565b90995060208180518101031261047e5760200151983861136e565b90965060208180518101031261047e57602001519538611301565b604051636f307dc360e01b80825292906020816004816001600160a01b0387165afa90811561048b57600091611b52575b50604051938452926020816004816001600160a01b0387165afa90811561048b57600491602091600091611b35575b5060405163313ce56760e01b815292839182906001600160a01b03165afa801561048b5760ff91600091611b16575b501692611285565b611b2f915060203d6020116117de576117cf8183610db6565b38611b0e565b611b4c9150823d84116104f1576104e38183610db6565b38611adf565b611b6b915060203d6020116104f1576104e38183610db6565b38611ab0565b611b8e91503d806000833e611b868183610db6565b8101906110c2565b3861126b565b935091506040833d604011611bce575b81611bb160409383610db6565b8101031261047e576020611bc484611077565b9301519138611239565b3d9150611ba4565b611bf091925060203d6020116104f1576104e38183610db6565b90386111f9565b6020813d602011611c23575b81611c1060209383610db6565b8101031261047e575161026052386111c7565b3d9150611c03565b9190604090815190611c3c82610d80565b60008083528060a060209482868201528287820152826060820152826080820152015260018060a01b03809616938051966370a0823160e01b9384895281600491169485828b0152868a6024818b5afa928315611f525785969798999a8694611f14575b50888a60248751809981936305eff7ef60e21b83528d898401525af195861561106d57908792918397611edf575b50898b60248b89519b8c938492633af9e66960e01b84528a8401525af1978815611ed5578398611ea6575b5085516395d89b4160e01b8152838186818f5afa908115611e9c5790611d28918591611e885750611274611123565b15611d5d575050505084319431955b825197611d4389610d80565b88528701528501526060840152608083015260a082015290565b8551636f307dc360e01b8152939892939192918a818b818f5afa908115611e7e578591611e61575b501691855190815281898201528981602481865afa908115611e5757908a92918591611e21575b506044909987519485938492636eb1769f60e11b84528301528d60248301525afa918215611e16578092611de3575b505095611d37565b9091508782813d8311611e0f575b611dfb8183610db6565b81010312611e0c5750513880611ddb565b80fd5b503d611df1565b8451903d90823e3d90fd5b8381939492503d8311611e50575b611e398183610db6565b81010312611e4c57518991906044611dac565b8380fd5b503d611e2f565b86513d86823e3d90fd5b611e7891508b3d8d116104f1576104e38183610db6565b38611d85565b87513d87823e3d90fd5b611b8e91503d8087833e611b868183610db6565b87513d86823e3d90fd5b9097508981813d8311611ece575b611ebe8183610db6565b8101031261101157519638611cf9565b503d611eb4565b86513d85823e3d90fd5b8a80929850819394503d8311611f0d575b611efa8183610db6565b8101031261106157908691519538611cce565b503d611ef0565b89809296975081939495503d8311611f4b575b611f318183610db6565b81010312611f4757908594939291519238611ca0565b8580fd5b503d611f27565b84513d87823e3d90fd5b9060405191602092611f8a848281611f7d818301968781519384920161109f565b8101038084520182610db6565b51902091611faa604051918281611f7d818301968781519384920161109f565b519020149056fea26469706673582212206486f68c16afe2c16d13ce496b89c1d84799ca31224b6b92cc45674eb0d3314964736f6c63430008160033",
    "linkReferences": {}
  },
  "methodIdentifiers": {
    "buildCTokenAllData(address)": "9b56b5cc",
    "cTokenBalances(address,address)": "bdf950c9",
    "getAccountLimits(address,address)": "7dd8f6d9",
    "queryAllNoAccount(address[])": "5d2bb247",
    "queryAllWithAccount(address[],address)": "d05308d4"
  },
  "id": 0
}